0312   201008MEMBERFILE    
0312   201008008741929 LINARES                       JOSE                 248 ARCADIA AVE                                             HEMPSTEAD                     NY   11553     A                                                                           MUEUU00000U0000000000003122150010PN194903262008030320080400000003050
0312   201008011428768 BOSTICK                       STEVEN              W3155 BROOKWOOD CIRCLE                                       PATCHOGUE                     NY   11772     A                                                                           MUEUU00000U0000000000003121820010PN195110162009060820090700000003200
0312   201008011645973 ASENCION                      ROMAN                830 WOODHULL ST                                             BROOKLYN                      NY   11225     A                                                                           MUEUU00000U0000000000003122120010PN196208272001060520010720101202800
0312   201008011736532 HERNANDEZ                     VICTORIA             18 PARK ST APT 1L                                           BROOKLYN                      NY   11206     A                                                                           FUEUU00000U0000000000003122070010PN196911082001053020010600000002850
0312   201008011813940 AREVALO                       MARIA                101 S DURAND PLACE APT 1                                    IRVINGTON                     NJ   07111     A8622151649                                                                 FUEUU00000U0000000000003121260010PN196706072009021820090300000002700
0312   201008011876577 PEREZ                         VERONICA             84 SHERIDAN ST                                              NEWARK                        NJ   07111     A                                                                           FUEUU00000U0000000000003121260010PN198705202010022220100300000002700
0312   201008011907968 CHAVEZ                        MARIA               E9 MONROE AVENUE                                             BRENTWOOD                     NY   11717     A6317483497                                                                 FUEUU00000U0000000000003122250010PN197210272009041520090500000003000
0312   201008012097654 LOPEZ-MIRANDA                 ANA                  64 WEST END AVE                                             INWOOD                        NY   11096     A                                                                           FUEUU00000U0000000000003121910010PN197204012008010120080100000002900
0312   201008012347001 AGUIRRE-AGULAR                GLADIS              V156 NEWMAN STREET                                           BRENTWOOD                     NY   11717     A6318386068                                                                 FUEUU00000U0000000000003122250010PN198901302010062420100700000003000
0312   201008012451290 HERRERA                       JOSE                 360 E 137TH ST APT 6G                                       BRONX                         NY   10454     A                                                                           MUEUU00000U0000000000003121090010PN196002142001080320010900000002700
0312   201008012482041 PAYNE                         PHYLIS               11 COURSEN CT                                               STATEN ISLAND                 NY   10304     A                                                                           FUEUU00000U0000000000003121980010PN193511182006040520060520120102200
0312   201008012755643 CHAVEZ                        WILBER              A236 FULTON ST                                               ELIZABETH                     NJ   07206     A                                                                           MUEUU00000U0000000000003121780010PN197407052005081820050900000002400
0312   201008012863526 SALINAS                       FERNANDO             45 BROADWAY APT 2E                                          FREEPORT                      NY   11520     A                                                                           MUEUU00000U0000000000003121730061PN198902252009070120090720100803050
0312   201008013359453 WALDEMAR                      ORELLANA             230 NEWMAN ST                                               BRENTWOOD                     NY   11717     A                                                                           FUEUU00000U0000000000003121220010PN197511222009072920090800000002950
0312   201008014487281 BOYD                          ANN                 M5910 SOMERSETDR                                             MAYSLANDING                   NJ   08330     A                                                                           FUEUU00000U0000000000003122300010PN196002262008110120081200000002950
0312   201008015182730 HENRY                         LESLIE              A370 E 31ST APT 2D                                           BROOKLYN                      NY   11226     A                                                                           MUEUU00000U0000000000003121070010PN196011271984040319840500000002950
0312   201008015270613 CRUZ                          MARITZA              426 WASHINGTON AVENUE                                       BRENTWOOD                     NY   11717     A                                                                           FUEUU00000U0000000000003122260010PN197802022010040420100520110903000
0312   201008015605292 O.NEIL                        SONG JA             J18 SQUARE HILL RD APT 2                                     NEW WINDSOR                   NY   12553     A                                                                           FUEUU00000U0000000000003121890010PN195603161983100319831100000002700
0312   201008016261879 REYES                         ELMER                70 FIRST ST                                                 BRENTWOOD                     NY   11717     A6317480777                                                                 MUEUU00000U0000000000003122250010PN198901122010061720100700000003000
0312   201008017567637 LIHERIO                       MICHAEL              00000000                                                    000000                        ??   00000     A                                                                           UUEUU00000U0000000000003121620061PN        2010062820100720100803000
0312   201008017704556 ZAMORA                        ORLANDO              198 ALKIER ST                                               BRENTWOOD                     NY   11717     A                                                                           MUEUU00000U0000000000003122260010PN197507282010020120100300000003000
0312   201008017851231 MARADIAGA                     AMELIA               51 INDIAN HEAD RD                                           KINGS PARK                    NY   11754     A6315758554                                                                 FUEUU00000U0000000000003122250010PN198311202010041820100500000003000
0312   201008017869090 BROWN                         MARY-ANN             125 CENTRAL AVE                                             HACKENSACK                    NJ   07601     A                                                                           FUEUU00000U0000000000003121340010PN196205162003060220030700000002700
0312   201008018490924 PAZ                           ANTONIO              15 LOCUST AVE                                               WYANDANCH                     NY   11798     A                                                                           MUEUU00000U0000000000003121710010PN195904302000081820000900000003050
0312   201008018801833 SOARES                        JOSE                 25 CHESTNUT ST                                              01757                         MA   01757     A                                                                           MUEUU00000U0000000000003121620010PN198211102009022420090300000003000
0312   201008019310235 CARDONA                       WALTER               7 FLOWER HILL PL                                            PORT WASHINGTON               NY   11050     A                                                                           MUEUU00000U0000000000003122230010PN198906202009110120091220110103000
0312   201008020621003 PIERRE                        JOSUE                10104 NORTHERN BLVD 2ND FL                                  FLUSHING                      NY   11368     A                                                                           MUEUU00000U0000000000003121510010PN194701091994021419940300000002800
0312   201008022213214 GONZALES                      NILCI                304 WOODSIDE AVE                                            NEWARK                        NJ   07104     A                                                                           FUEUU00000U0000000000003121260061PN197606112010080120100820100802700
0312   201008022683524 CELESTIN                      JEAN                C14 CARRIAGE DR                                              MOUNT HOLLY                   NJ   08060     A                                                                           FUEUU00000U0000000000003121080010PN196612082009012120090220110802500
0312   201008023672341 FLORES                        FELICITAS            145 MANHATTAN AVE APT 3                                     BROOKLYN                      NY   11211     A                                                                           FUEUU00000U0000000000003122070010PN196803172002110820021200000002850
0312   201008023849048 LANDAVERDE                    JOSE                D275 JEFFERSON AVE                                           BRENTWOOD                     NY   11717     A                                                                           MUEUU00000U0000000000003122260010PN198406092008091020081000000003000
0312   201008024429723 LUSSIER                       JAMES                33 VICARDAN AVE                                             PALMER                        MA   01069     A                                                                           MUEUU00000U0000000000003121620010PN195701262009120120091220101003000
0312   201008024864288 FANG                          JUE                  8501 60TH ROAD                                              FLUSHING                      NY   11379     A                                                                           FUEUU00000U0000000000003121830061PN195503242010030520100420100802600
0312   201008025647306 GARCIA                        ANGELA               614 WILLOUGBY AVE APT 4                                     BROOKLYN                      NY   11206     A                                                                           FUEUU00000U0000000000003122070010PN197201272000033020000400000002850
0312   201008026768634 ALVARADO                      LOURDES              14 OAKDALE AVE                                              CENTRAL ISLIP                 NY   11722     A6314353637                                                                 FUEUU00000U0000000000003122250010PN198711192010060820100700000003000
0312   201008026787161 DENOON                        AMOS                B2950 W 35TH ST APT 1026                                     BROOKLYN                      NY   11224     A3473745155                                                                 MUEUU00000U0000000000003121070010PN195702162003090820031000000002950
0312   201008027213164 HERNANDEZ-VENTURA             MARIA               P113 2ND ST                                                  ELIZABETH                     NJ   07206     A                                                                           FUEUU00000U0000000000003121780010PN198003022007021520070320110502400
0312   201008027644834 FLAHERTY                      MARK                 0000000                                                     00000000                      ??   00000     A                                                                           UUEUU00000U0000000000003121620010PN        2010050320100620110603000
0312   201008028177171 FIALLOS                       LUIS                H124 MADISON AVE                                             PLAINFIELD                    NJ   07060     A                                                                           MUEUU00000U0000000000003121570010PN196302032009081720090900000002200
0312   201008028568945 HERNANDEZ                     RENE                 86 GLENMORE AVE                                             CENTRAL ISLIP                 NY   11722     A                                                                           MUEUU00000U0000000000003122260010PN198207092007111420071200000003000
0312   201008028738272 RIVERA                        JESSICA              225 N DELAWARE AVE                                          LINDENHURST                   NY   11757     A                                                                           FUEUU00000U0000000000003122320010PN196003012004090120041000000002800
0312   201008029603583 LANTEIGNE                     ROBIN                37 E 19TH ST                                                HUNTINGTON STA                NY   11746     A                                                                           FUEUU00000U0000000000003122150010PN196406291998060819980700000003050
0312   201008030700120 VIEIRA                        CARLOS               0000000000                                                  000000000                     ??   00000     A                                                                           UUEUU00000U0000000000003121620010PN        2010041920100500000003000
0312   201008031289910 SABEDRA                       ORLANDO              300 MONROE AVE                                              PLAINFIELD                    NJ   07063     A                                                                           MUEUU00000U0000000000003121700010PN195205051993102119931100000002850
0312   201008031622965 CAVE                          ANNE                 470 OCEAN AVE APT RA-1                                      BROOKLYN                      NY   11226     A                                                                           FUEUU00000U0000000000003121980010PN193910151990091819901000000002200
0312   201008032549038 OSORIO                        EDWIN                79 LILLIAN AVE                                              FREEPORT                      NY   11520     A                                                                           MUEUU00000U0000000000003121730010PN198806162008061620080700000003050
0312   201008032760943 POMAVILLA                     LUIS                 23 40TH STREET                                              IRVINGTON                     NJ   07112     A                                                                           MUEUU00000U0000000000003121260010PN197505222010012020100220110302700
0312   201008033667293 RIZZARI                       ANTHONY              000000000                                                   0000000                       ??   00000     A                                                                           UUEUU00000U0000000000003121620010PN        2010071420100820110903000
0312   201008033722047 RODRIGUEZ                     ANA                  PO BOX 818                                                  WATER MILL                    NY   11976     A                                                                           FUEUU00000U0000000000003121350010PN195007262002090720021000000002700
0312   201008033769218 SARABIA                       MARTHA               1332 N CLINTON AVENUE                                       BAYSHORE                      NY   11706     A6319682920                                                                 FUEUU00000U0000000000003122260061PN198102142010080120100820100803000
0312   201008034096745 COBO                          WILSON               31 INCHCAPE RD                                              BAY SHORE                     NY   11706     A                                                                           MUEUU00000U0000000000003122190010PN195608021999080919990900000003050
0312   201008035289736 VENTURA                       KEVIN               A511 FRANKLIN ST                                             ELIZABETH                     NJ   07206     A                                                                           MUEUU00000U0000000000003121780010PN198703222010032920100420110302400
0312   201008036402677 JOHNSON                       BELINDA             D501 CHEWSLANDING RD APT 229                                 SICKLERVILLE                  NJ   08081     A                                                                           FUEUU00000U0000000000003122300010PN195801151994080819940920101102950
0312   201008036578967 QUEZADA                       LENIN                WINDSOR CASTLE APT B1                                       HIGHTSTOWN                    NJ   08520     A                                                                           MUEUU00000U0000000000003122220010PN197609092000032720000400000003000
0312   201008037772070 CEDANO                        JULIA                354 A EVONA AVE                                             PLAINFIELD                    NJ   07063     A                                                                           FUEUU00000U0000000000003121700010PN197201282000030720000400000002850
0312   201008038649021 PERDOMO                       XIOMARA              1675 UNIVERSITY AVE APT 3D                                  BRONX                         NY   10453     A                                                                           FUEUU00000U0000000000003121110010PN196610031998080719980900000002700
0312   201008039621846 HERNANDEZ                     MARIA               D509 E JERSEY ST                                             ELIZABETH                     NJ   07206     A                                                                           FUEUU00000U0000000000003121780010PN198002242006092620061000000002400
0312   201008040900387 ESPARZA                       MARIANA              41 LONG HILL AVE                                            SHELTON                       CT   06484     A                                                                           FUEUU00000U0000000000003122270010PN196206022001052820010600000002600
0312   201008041504758 ESPOSITO                      LISA                A19 SUNSET DR                                                SHELTON                       CT   06484     A                                                                           FUEUU00000U0000000000003122270010PN195505151997011319970220110302600
0312   201008041728777 HOLCOMB                       KEVIN                66 MOHAWK AVE                                               DERBY                         CT   06418     A                                                                           MUEUU00000U0000000000003122270010PN197105111997111019971200000002600
0312   201008041785655 VEN                           CHHY                 1631 AVE N                                                  BRIDGEPORT                    CT   06604     A                                                                           FUEUU00000U0000000000003122270010PN195902041992091819921000000002600
0312   201008041801113 SINDO                         CARMEN               29 CHESTERFIELD LANE                                        STATEN ISLAND                 NY   10314     A                                                                           FUEUU00000U0000000000003121980010PN198511062010071720100800000002200
0312   201008041928839 CASTRO                        FREDDIE              14 SUMMER ST                                                SHELTON                       CT   06484     A                                                                           MUEUU00000U0000000000003122270010PN197008281995090519951000000002600
0312   201008041949359 PODSADOWSKI                   STEFANIA             86 WARWICK AVE                                              BRIDGEPORT                    CT   06615     A                                                                           FUEUU00000U0000000000003122270010PN195603031999121620000100000002600
0312   201008042562425 WIDEMAN                       KAREN                613 FERRY ST                                                EASTON                        PA   18042     A                                                                           FUEUU00000U0000000000003121190010PN196108132006110720061200000002750
0312   201008042585632 PEREZ                         ARMANDO              20 CROOKE AVE APT 2E                                        BROOKLYN                      NY   11226     A                                                                           MUEUU00000U0000000000003121050010PN196511232008120820090120101102500
0312   201008042586953 LEANDRES                      JOE                  15 LOVERS LN                                                MONROE                        CT   06468     A                                                                           MUEUU00000U0000000000003122270010PN195705071984091319841000000002600
0312   201008042622718 KORNEGAY                      LORA                L43 REMINGTON ST APT A6                                      BRIDGEPORT                    CT   06610     A                                                                           FUEUU00000U0000000000003122270010PN196109012000020320000320110302600
0312   201008042642978 JAMES                         BRIAN                131 OAK ST                                                  BRIDGEPORT                    CT   06601     A                                                                           MUEUU00000U0000000000003122270010PN196608102003090220031020110602600
0312   201008042667195 ABBOTT                        LAURA                18 BELLEVIEW TERR                                           ANSONIA                       CT   06401     A                                                                           FUEUU00000U0000000000003122270010PN196008251995071719950800000002600
0312   201008043485729 PUCHA                         MIGUEL               1C LAKE STREET                                              JAMESBURG                     NJ   08831     A7325612139                                                                 MUEUU00000U0000000000003122220010PN196301221997021719970300000003000
0312   201008043544849 HAYDUCKY                      LINDA                120 BOTSFORD RD                                             SEYMOUR                       CT   06483     A                                                                           FUEUU00000U0000000000003122270010PN195508031998060119980720110402600
0312   201008043663331 JAMES                         CHRISTOPHER          552 ATLANTIC ST APT C                                       BRIDGEPORT                    CT   06604     A                                                                           MUEUU00000U0000000000003122270010PN196302082008040720080520110302600
0312   201008043783444 PENG                          HOK-ENG              124 KING ST                                                 BRIDGEPORT                    CT   06605     A                                                                           FUEUU00000U0000000000003122270010PN196405051990061219900700000002600
0312   201008043828085 MUSHICKI                      SHANNON              314 OLIVIA ST                                               DERBY                         CT   06418     A                                                                           FUEUU00000U0000000000003122270010PN198005192003060820030700000002600
0312   201008044643871 WOODS                         GENEEA               7 CAYUGA LANE                                               EVESHAM TWP                   NJ   08053     A                                                                           FUEUU00000U0000000000003121020010PN        2009080120090800000002700
0312   201008044649460 LOPEZ                         CARMEN               378 WEBSTER 2ND FL                                          JERSEY CITY                   NJ   07307     A                                                                           FUEUU00000U0000000000003121600010PN197210222006091820061000000002900
0312   201008044698521 RAMIREZ                       CARMEN               7 DURAN PLACE APT 2                                         IRVINGTON                     NJ   07111     A9733365703                                                                 FUEUU00000U0000000000003121260010PN198007152010020920100320111002700
0312   201008044805150 PASTORELLA                    JOSEPH               105 WESTFIELD AVE                                           ANSONIA                       CT   06401     A                                                                           MUEUU00000U0000000000003122270010PN197109232007053120070600000002600
0312   201008044885737 GARCIA                        ANTONIO             A1804 HARRISON AVE APT 2H                                    BRONX                         NY   10455     A                                                                           MUEUU00000U0000000000003121120010PN195502121999090119991000000003500
0312   201008044924426 CAZARES                       ESPERANZA            283 CORAN AVE                                               SHELTON                       CT   06484     A                                                                           FUEUU00000U0000000000003122270010PN196409212000083020000900000002600
0312   201008044947261 SAKSENE                       PHILIWAN             840 STATE STREET                                            BRIDGEPORT                    CT   06604     A                                                                           FUEUU00000U0000000000003122270010PN197504232010030120100300000002600
0312   201008045232006 LOPEZ                         ROGER                96 WOOD RD                                                  CENTEREACH                    NY   11720     A                                                                           MUEUU00000U0000000000003122260010PN197802182007050120070500000003000
0312   201008045232006 LOPEZ                         ROGER                96 WOOD RD                                                  CENTEREACH                    NY   11720     A                                                                           MUEUU00000U0000000000003122250010PN197802182007050120070500000003000
0312   201008045484079 FRANKLIN                      CALVIN               226 HEWITT ST                                               BRIDGEPORT                    CT   06601     A                                                                           MUEUU00000U0000000000003122270010PN195312042003042820030500000002600
0312   201008045546345 ORTEGA                        ERNESTINA            1438 SPRINGFIELD AVE                                        NEWARK                        NJ   07111     A                                                                           FUEUU00000U0000000000003121260010PN197901222010021520100300000002700
0312   201008045646258 CRUZ                          JENNIFER            L103 HOWARD AVE                                              ANSONIA                       CT   06401     A                                                                           FUEUU00000U0000000000003122270010PN197102192003050520030600000002600
0312   201008045648063 GRANTON                       JUSTIN               103 HOWARD AVE                                              ANSONIA                       CT   06401     A                                                                           MUEUU00000U0000000000003122270010PN197203291995011419950200000002600
0312   201008045648200 CENTENO                       CARLOS               11 PARK PL RM 1705                                          NEW YORK                      NY   00000     A                                                                           MUEUU00000U0000000000003122090010PN196504192009010920090200000002950
0312   201008045663776 ADAMS                         JOHN                 47 N FIELD ST                                               BRIDGEPORT                    CT   06606     A                                                                           MUEUU00000U0000000000003122270010PN197111162010060120100700000002600
0312   201008045702955 MAGAT                         ERNESTO             B25 SHERFIELD AVE #E-5                                       ENGLEWOOD                     NJ   07631     A                                                                           MUEUU00000U0000000000003121750010PN194805141988030119880300000002750
0312   201008045787682 DELCID                        LEIDA                2164 CATON AVE APT 3E                                       BROOKLYN                      NY   11226     A                                                                           FUEUU00000U0000000000003121400010PN196709132008112420081200000002500
0312   201008045886754 MARQUEZ                       CARMEN               264 MARTRE RD                                               CENTEREACH                    NY   11720     A                                                                           FUEUU00000U0000000000003122260010PN197909102006110620061200000003000
0312   201008046119740 RODRIGUEZ                     MAYRA                114 HILLTOP DRIVE                                           BRENTWOOD                     NY   11717     A                                                                           FUEUU00000U0000000000003122190010PN195903041986111819861200000003050
0312   201008046563175 DUGAY                         MARCO                1596 WHITNEY AVE                                            NEW HAVEN                     CT   06517     A                                                                           MUEUU00000U0000000000003122270010PN196703232006053020060600000002600
0312   201008046628110 WILSON.JR                     EDWARD               51 LONGMEADOW RD                                            SHELTON                       CT   06484     A                                                                           MUEUU00000U0000000000003122270010PN196305311988082219880900000002600
0312   201008046786590 ESPINAL                       ARISMENDY            1410 PUTNAM AVE                                             BROOKLYN                      NY   11237     A                                                                           MUEUU00000U0000000000003122200010PN195910161990052119900600000003050
0312   201008047605663 JOHNSON                       SCOTT                32 LEE AVENUE                                               BRIDGEPORT                    CT   06605     A                                                                           MUEUU00000U0000000000003122270010PN196008162007081320070900000002600
0312   201008047643631 DELVALLE                      CHARLY               37 GURDEN ST 2ND FL                                         BRIDGEPORT                    CT   06606     A                                                                           MUEUU00000U0000000000003122270010PN197507012007081320070900000002600
0312   201008047760576 NANTON                        ADELINE              344 SPRINGFIELD WAY                                         EASTON                        PA   18045     A                                                                           FUEUU00000U0000000000003121190010PN196810162005052320050600000002750
0312   201008047820313 KRAMER.III                    ROBERT              T?                                                           ?                             ??   00000     A                                                                           MUEUU00000U0000000000003122270010PN198105152010030120100300000002600
0312   201008048053647 MARTINEZ                      VERONICA             197 PRINCETON STREET                                        HEMPSTEAD                     NY   11550     A                                                                           FUEUU00000U0000000000003122230010PN198007102007121720080100000003000
0312   201008048607849 MALDONADO                     JAIME                99 WILSON ST APT 15B                                        BROOKLYN                      NY   11249     A                                                                           MUEUU00000U0000000000003121050010PN195804162005120520060100000002500
0312   201008048620844 HERNANDEZ                     PHILIP               476 WOODLAWN AVE                                            BRIDGEPORT                    CT   06606     A                                                                           MUEUU00000U0000000000003122270010PN196111132006050820060600000002600
0312   201008048704667 KHUTH                         SOKKHAUN             323 BRUCE AVE                                               STRATFORD                     CT   06497     A                                                                           MUEUU00000U0000000000003122270010PN197306021994070519940800000002600
0312   201008048789275 ALOMAR.JR                     ELBIN                931 AMERICUS AVE                                            PATCHOGUE                     NY   11772     A                                                                           MUEUU00000U0000000000003121820010PN199012092010022220100300000003200
0312   201008048981818 NGUYEN                        TUYEN                59 GROVE ST                                                 SHELTON                       CT   06484     A                                                                           MUEUU00000U0000000000003122270010PN196102052000012920000200000002600
0312   201008049048312 NICHOLS                       ZULIET               199 FOREST AVENUE APT 1       00000                         LYNBROOK                      NY   11563     A                                                                           MUEUU00000U0000000000003121300010PN        2010070120100720101002700
0312   201008049469780 ABROMAITIS                    JEAN                 195 WEST RD                                                 BEACON FALLS                  CT   06403     A                                                                           MUEUU00000U0000000000003122270010PN195202112003090120031000000002600
0312   201008049584737 HERNANDEZ                     ADRIANA              508 HARRAL AVE                                              BRIDGEPORT                    CT   06604     A                                                                           FUEUU00000U0000000000003122270010PN195804272000091120001020110602600
0312   201008049609574 CHADWICK                      BRIAN                5 LOUNSBURY RD                                              OXFORD                        CT   06478     A                                                                           MUEUU00000U0000000000003122270010PN195806182003090220031020110202600
0312   201008049664327 ROSARIO                       ALBERTO             R611 ABBINGTON DR APT D6                                     HIGHTSTOWN                    NJ   08520     A                                                                           MUEUU00000U0000000000003122220010PN197501152009052620090600000003000
0312   201008049706081 FRANCIS                       COLONEL              167 WINFIELD DR                                             BRIDGEPORT                    CT   06615     A                                                                           MUEUU00000U0000000000003122270010PN198008132007111920071200000002600
0312   201008049782811 RIVERA                        JENNIFER             809 COUNTRY CLUB PKWY                                       MOUNT LAUREL                  NJ   08054     A                                                                           FUEUU00000U0000000000003121740010PN198607212010030920100420101102700
0312   201008049787914 MOLINA                        EDWIN                45 BASKING RIDGE RD                                         SHELTON                       CT   06484     A                                                                           MUEUU00000U0000000000003122270010PN197306232003091520031000000002600
0312   201008049863890 GOMEZ                         EDITH                96 WOOD RD                                                  CENTEREACH                    NY   11720     A6316248463                                                                 MUEUU00000U0000000000003122250010PN199006112010062320100700000003000
0312   201008050022007 ANGULO                        LORDES               2611 CRESCENT ST APT 2B                                     ASTORIA                       NY   11102     A9174706102                                                                 FUEUU00000U0000000000003122160010PN198803252010032420100420110502300
0312   201008050024862 ANGULO                        NANCY               P2611 CRESCENT ST APT 2B                                     ASTORIA                       NY   11102     A9174706102                                                                 FUEUU00000U0000000000003122160010PN198912112010032420100420110502300
0312   201008050028388 ANGULO                        MARIA                2611 CRESCENT ST APT 2B                                     ASTORIA                       NY   11102     A9174706102                                                                 FUEUU00000U0000000000003122160010PN199108092010042520100520110502300
0312   201008050381604 MORA                          ANGELICA             2675 MORRIS AVE APT 2B                                      BRONX                         NY   10468     A                                                                           FUEUU00000U0000000000003121980010PN194605121999112919991200000002200
0312   201008050421091 HINTON                        JAN                 P183 SOUTH AVE                                               STATEN ISLAND                 NY   10303     A                                                                           FUEUU00000U0000000000003121980010PN194705311985080119850820120102200
0312   201008050482813 YOUNG                         JAMES                11427 144TH ST                                              JAMAICA                       NY   11431     A                                                                           MUEUU00000U0000000000003122190010PN194012132010031520100400000003050
0312   201008050486371 MAXIUS                        ROSALEE              937 RALPH AVE 1ST FL                                        BROOKLYN                      NY   11236     A                                                                           FUEUU00000U0000000000003121960010PN195510192004071220040800000003250
0312   201008050486660 SMALLWOOD                     SHEILA               1939 BERGEN ST APT 3D                                       BROOKLYN                      NY   11233     A                                                                           FUEUU00000U0000000000003121980010PN195602041997100119971000000002200
0312   201008050566244 GILKINSON                     RICHARD              656 E N WELLWOOD AVE                                        LINDENHURST                   NY   11757     A                                                                           MUEUU00000U0000000000003122150010PN195901112000071720000800000003050
0312   201008050568739 MOSS                          REGINALD             13846 248TH ST                                              JAMAICA                       NY   11422     A                                                                           MUEUU00000U0000000000003121830010PN196001282004061620040700000002600
0312   201008050581197 SHEWOERER                     NANCY                834 PENFIELD ST APT 2H                                      BRONX                         NY   10470     A                                                                           FUEUU00000U0000000000003121980010PN196010091990013119900300000002200
0312   201008050646671 DAMALLY                       JANICE               170 DREISER LOOP APT 15D                                    BRONX                         NY   10475     A                                                                           FUEUU00000U0000000000003121450010PN194512151992090219921000000002400
0312   201008050766900 RODRIGUEZ                     ROMELIA              2463 TIEBOUT AVE APT 34                                     BRONX                         NY   10458     A                                                                           FUEUU00000U0000000000003121980010PN196102102001032720010400000002200
0312   201008050781100 LEZAMA                        JENNIFER             116 BEAVILLE AVE                                            TOMS RIVER                    NJ   08757     A                                                                           FUEUU00000U0000000000003121080010PN199006202008091520081000000002500
0312   201008050783128 FERNANDEZ                     OLGA                 709 W 170TH ST APT 54                                       NEW YORK                      NY   10032     A                                                                           FUEUU00000U0000000000003121980010PN195603092004021620040300000002200
0312   201008050784345 JIMENEZ                       STEPHANIE            00000                                                       00000                         ??   00000     A                                                                           FUEUU00000U0000000000003122080061PN        2010061620100720100802950
0312   201008050801449 GERMAN                        ARACELIS             251 56TH STREET APT 1                                       BROOKLYN                      NY   11220     A                                                                           FUEUU00000U0000000000003122000010PN197609162003090120031020110202800
0312   201008050820356 BRUCE                         CURTIS               279 OCEAN AVE APT 2C                                        BROOKLYN                      NY   11225     A                                                                           MUEUU00000U0000000000003121460010PN197810092007121620080100000003000
0312   201008050823001 CENTENO                       DIGNA               M1662 HOE AVE APT 1C                                         BRONX                         NY   10460     A                                                                           FUEUU00000U0000000000003121450010PN196604141989122919900100000002400
0312   201008050869456 NUNEZ                         JUANA               R945 ST NICHOLAS AVE APT 2A                                  NEW YORK                      NY   10032     A                                                                           FUEUU00000U0000000000003121450010PN196308302006022320060300000002400
0312   201008050907128 KEBBEH                        MAFANTA             C763 FOX STREET APT 6F                                       BRONX                         NY   10455     A                                                                           FUEUU00000U0000000000003121980010PN197002202007010220070200000002200
0312   201008050926885 CARRANZA                      RAUL                 64 SOUTH 27TH STREET                                        WYANDANCH                     NY   11798     A                                                                           MUEUU00000U0000000000003121180010PN196103202006121320070100000003150
0312   201008050926940 PORTILLO                      MARIA               T40 WEST ST                                                  NEWBURGH                      NY   12550     A                                                                           FUEUU00000U0000000000003121890010PN196807191999101219991100000002700
0312   201008050987648 GARCIA                        JUAN                A400 S 4TH ST APT 4R                                         BROOKLYN                      NY   11211     A                                                                           MUEUU00000U0000000000003122200010PN194607302009071420090820110803050
0312   201008051025841 LI                            WANG-WEI             6143 146 ST 2F                                              FLUSHING                      NY   11367     A                                                                           FUEUU00000U0000000000003122330010PN198307232010080120100800000000000
0312   201008051387250 O.NEILL-HERNANDEZ             MARY                 63 PEARL ST                                                 HOLBROOK                      NY   11741     A                                                                           FUEUU00000U0000000000003121480010PN194605072000120120001200000002850
0312   201008051408817 ERVIN                         LILLIAN              231 STEUBEN ST APT 5J                                       STATEN ISLAND                 NY   10304     A                                                                           FUEUU00000U0000000000003121980010PN194805111995030619950420120102200
0312   201008051480037 ENEA                          LUCILLE              226 FLOYD RD                                                SHIRLEY                       NY   11967     A                                                                           FUEUU00000U0000000000003121480010PN195312232000100120001000000002850
0312   201008051628757 RODRIGUEZ                     MARLENE              56 4TH ST                                                   BRENTWOOD                     NY   11717     A                                                                           FUEUU00000U0000000000003122150010PN196608051985040819850500000003050
0312   201008051647320 HOFMANN                       PETER               T90 EVERETT ST                                               PATCHOGUE                     NY   11772     A                                                                           MUEUU00000U0000000000003122150010PN196409211983071219830820110203050
0312   201008051688197 ALLIKSEN                      ERIK                 0                                                           00                            __   00000     A                                                                           MUEUU00000U0000000000003121820010PN196806242007090420071020100903200
0312   201008051747974 RAMOS-BARET                   MILADYS             J3591 BAINBRIDGE AVE APT 3M                                  BRONX                         NY   10467     A                                                                           FUEUU00000U0000000000003121980010PN194905081989021019890300000002200
0312   201008051763256 RAMOS                         MARISELA             195 CONTINENTAL PL APT 3A                                   STATEN ISLAND                 NY   10303     A                                                                           FUEUU00000U0000000000003121980010PN198809182010042320100500000000000
0312   201008051763256 RAMOS                         MARISELA             195 CONTINENTAL PL APT 3A                                   STATEN ISLAND                 NY   10303     A                                                                           FUEUU00000U0000000000003121980010PN198809182010042320100500000002200
0312   201008051768229 FEHNER                        MARK                E15 OLD NECK ROAD S                                          CENTER MORICHES               NY   11934     A                                                                           MUEUU00000U0000000000003121820010PN198901232007100820071120111003200
0312   201008051769972 SHARKEY                       PATRICK              7 LEXINGTON CT                                              CORAM                         NY   11727     A                                                                           MUEUU00000U0000000000003122260010PN198202122007100720071120110403000
0312   201008051802475 FILPO                         JOSE                V24 HUMBOLDT APT 16D                                         BROOKLYN                      NY   11206     A                                                                           MUEUU00000U0000000000003122200010PN196306282003020120030300000003050
0312   201008051820590 LIRIANO                       WALDY               J125 PRESIDENTIAL BLVD APT 12B                               PATERSON                      NJ   07522     A                                                                           MUEUU00000U0000000000003121110010PN198203162004061120040700000002700
0312   201008051823800 PINALES                       GUSTAVO              526 W 158TH ST APT 64                                       NEW YORK                      NY   10032     A                                                                           MUEUU00000U0000000000003121110010PN196707212001060420010700000002700
0312   201008051887992 ANTOINE                       TINY                 1084 NEW YORK AVE                                           BROOKLYN                      NY   11203     A                                                                           FUEUU00000U0000000000003121420010PN196901222009080120090800000002500
0312   201008051903568 GUVEN                         LEYLA                134 LYMAN AVE                                               STATEN ISLAND                 NY   10305     A                                                                           FUEUU00000U0000000000003121980010PN198307232009100120091020120102200
0312   201008051924465 NG                            IVY                  00                                                          00                            ??   00000     A                                                                           MUEUU00000U0000000000003121830010PN        2010062220100720110402600
0312   201008051946195 VELOTTA                       MA-SARA              33 WILSHIRE DR                                              BABYLON                       NY   11703     A                                                                           FUEUU00000U0000000000003122150010PN196011252005012420050200000003050
0312   201008051985059 GREEN                         ATALIE               38 SOUTH ST                                                 STATEN ISLAND                 NY   10310     A                                                                           FUEUU00000U0000000000003121980010PN198101132008070120080720120102200
0312   201008052093019 AGUILAR                       JOSE                 112 GREGURY AVE APT D11                                     PASSAIC                       NJ   07055     A                                                                           MUEUU00000U0000000000003121150010PN197709042004080920040920110302500
0312   201008052301187 TENGA                         JOSEPH              L6505 DOVE COURT N.E                                         ALBUQUERQUE                   NM   87144     A                                                                           MUEUU00000U0000000000003121900010PN193808211964110119641200000001400
0312   201008052322809 LOIACONO                      SALVATORE            32 DORCHESTER RD                                            SMITHTOWN                     NY   11787     A                                                                           MUEUU00000U0000000000003121900010PN194010271976090319761000000001400
0312   201008052462728 LORA                          ALTAGRACIA           430 E 118TH ST APT 6D                                       NEW YORK                      NY   10035     A                                                                           FUEUU00000U0000000000003121980010PN195112151985110619851200000002200
0312   201008052463332 ARACENA                       LUZ                 E17 EAST 124TH STREET APT 5L                                 NEW YORK                      NY   10035     A                                                                           FUEUU00000U0000000000003121980010PN194506101998071619980800000002200
0312   201008052492082 ROJAS                         ESPERANZA            14 WILLOW AVE                                               PLAINFIELD                    NJ   07060     A                                                                           FUEUU00000U0000000000003121700010PN195804181990071819900800000002850
0312   201008052518359 GUZMAN                        PEDRO                18 HASLEY ST                                                PORT JEFFERSON                NY   11776     A6313845620                                                                 MUEUU00000U0000000000003122260061PN199007082010050220100620100803000
0312   201008052559562 HIGA                          JUAN                 3608 PARK AVE APT 3L                                        UNION CITY                    NJ   07087     A                                                                           MUEUU00000U0000000000008151570010PN195102242001020120010320110802950
0312   201008052589618 CARDENAS-REYES                GLORIA              B5726 XENIA ST APT 1                                         FLUSHING                      NY   11368     A3472073216                                                                 FUEUU00000U0000000000003122070010PN195612252002020120020300000002850
0312   201008052641022 LISSADE                       GILBERT              915 E 229TH ST                                              BRONX                         NY   10466     A                                                                           MUEUU00000U0000000000003121460010PN197201312006090120061000000003000
0312   201008052663633 FERNANDEZ                     ANTONIA              59 JASPER ST                                                PATERSON                      NJ   07522     A                                                                           FUEUU00000U0000000000003121090010PN194605032009070120090720111102700
0312   201008052678957 AGUIRE                        KAREN                16 GENOA ST                                                 BABYLON                       NY   11704     A                                                                           FUEUU00000U0000000000003122160010PN198411162009110120091220101202600
0312   201008052682734 FRIAS                         ESTEBANIA            143 PALMETTO ST APT 3A                                      BROOKLYN                      NY   11221     A                                                                           FUEUU00000U0000000000003121980010PN194208012005030720050400000002200
0312   201008052723040 ORTEGA                        LUIS                R736 W 173RD ST APT A24                                      NEW YORK                      NY   10032     A                                                                           MUEUU00000U0000000000003121090010PN196511191997121719980100000002700
0312   201008052769627 DHAHER                        DHAHER              A12 ST JOSEPH BLVD APT 11                                    LODI                          NJ   07644     A                                                                           MUEUU00000U0000000000003121610010PN196708131995032019950400000003000
0312   201008052780858 RODRIGUEZ                     JERRY               L203 SHINNECOCK AVE                                          MASTIC                        NY   11950     A                                                                           MUEUU00000U0000000000003121820010PN199007112008091420081000000003200
0312   201008052789262 HAMILTON                      ALDEN                3323 ST THOMAS DR                                           SILVER SPRING                 MD   20904     A                                                                           MUEUU00000U0000000000003121520019PN197307282010080120100820110302850
0312   201008052824300 TAYLOR                        DAVID                378 RUTLAND RD                                              BROOKLYN                      NY   11225     A                                                                           MUEUU00000U0000000000003121830010PN197808241998081219980900000002600
0312   201008052824869 RAGOONANAN                    RAMCHARAN            11143 168TH STREET                                          JAMAICA                       NY   11433     A                                                                           MUEUU00000U0000000000003121460010PN195102162004120120041200000003000
0312   201008052827741 FLORES-MARTINEZ               FERMIN               660 WEST 178TH ST APT 4N                                    NEW YORK                      NY   10033     A                                                                           MUEUU00000U0000000000003122070010PN196611242009020620090300000002850
0312   201008052828981 SANTOS                        MERCEDES             230 W 131ST ST APT 12F                                      NEW YORK                      NY   10027     A                                                                           FUEUU00000U0000000000003121980010PN196311302001120120011200000002200
0312   201008052854861 BARRALES                      MARIA                199 CAMBRIDGE AVE APT 2                                     GARFIELD                      NJ   07026     A                                                                           FUEUU00000U0000000000003121110010PN197011122004082620040900000002700
0312   201008052860506 MEJIA-DUVAL                   EDDY                 191 SANDS ST                                                BROOKLYN                      NY   11201     A                                                                           MUEUU00000U0000000000003122070010PN198403042003101520031100000002850
0312   201008052861352 CHERREZ                       PABLO                ?                                                           ?                             ??   00000     A                                                                           MUEUU00000U0000000000003121050010PN197711132009010720090200000002500
0312   201008052887565 MEZON                         YDELSA               212 BROAD ST APT 8F                                         STATEN ISLAND                 NY   10304     A                                                                           FUEUU00000U0000000000003121980010PN197806262006051820060620120102200
0312   201008052901333 IGLESIA                       JOSEFINA             566 49TH ST                                                 BROOKLYN                      NY   11220     A                                                                           FUEUU00000U0000000000003122000010PN197003192005080120050800000002800
0312   201008052901723 PADILLA                       MIRIAN               129 MERRILL ST                                              BRENTWOOD                     NY   11717     A                                                                           FUEUU00000U0000000000003122190010PN197111302007090420071000000003050
0312   201008052929236 BAMBA                         MAICHATA             1639 NELSON AVE APT 2F                                      BRONX                         NY   10453     A                                                                           FUEUU00000U0000000000003121980010PN196207162004123020050100000002200
0312   201008052929807 MINDIOLA                      NORELYS              7915 32ND AVE 2ND FL                                        FLUSHING                      NY   11370     A                                                                           FUEUU00000U0000000000003121330010PN197005202006090720061000000002400
0312   201008053342910 BECKETT-TAYLOR                CARMEN               250 PARK AVE APT 4H                                         STATEN ISLAND                 NY   10302     A                                                                           FUEUU00000U0000000000003121980010PN193909132006110820061220120102200
0312   201008053540111 RODRIGUEZ                     VENANCIA             526 W 211 ST APT 2C                                         NEW YORK                      NY   10034     A                                                                           FUEUU00000U0000000000003121980010PN195004011992072819920800000002200
0312   201008053584560 KELLY                         IRMA                 2831 EXTERIOR SHEET APT 14L                                 BRONX                         NY   10463     A                                                                           FUEUU00000U0000000000003121980010PN196010102000092320001020101102200
0312   201008053586988 GOMEZ                         RALPH                1580 THIEROT AVE APT 3B                                     BRONX                         NY   10460     A                                                                           MUEUU00000U0000000000003121530010PN196404022007022820070320110802950
0312   201008053608057 BOTTIGLIERI                   JEANA                565 ODER AVE                                                STATEN ISLAND                 NY   10304     A                                                                           FUEUU00000U0000000000003121980010PN197412122009090920091000000002200
0312   201008053609651 BOWEN                         ERROL               L108 E 32ND ST 2ND FL                                        BROOKLYN                      NY   11226     A                                                                           MUEUU00000U0000000000003121500010PN194301191988080219880920111203050
0312   201008053749661 NUNEZ                         FELIX                5919 69TH AVE                                               FLUSHING                      NY   11385     A                                                                           MUEUU00000U0000000000003122200010PN196305022010060820100700000003050
0312   201008053767314 SOTO                          CARLOS               ?                                                           ?                             ??   ?         A                                                                           MUEUU00000U0000000000003121970010PN        2010052420100620110103180
0312   201008053769427 PIERRE                        MARIE-ENITE          1796 NOSTRAND AVE APT 1R                                    BROOKLYN                      NY   11226     A                                                                           FUEUU00000U0000000000003121980010PN195411182003031220030420110102200
0312   201008053781656 CASTELLON                     YADIRA               543 GRAHAM AVE APT 2L                                       BROOKLYN                      NY   11222     A                                                                           FUEUU00000U0000000000003122200010PN196404241990091019901000000003050
0312   201008053809938 FIGUEROA                      LUZ                 M310 S 3RD ST APT 2                                          BROOKLYN                      NY   11211     A                                                                           FUEUU00000U0000000000003122070010PN194709202003121520040120110702850
0312   201008053824870 QUEZADA                       JUANA                172 SHERMAN AVE APT 47                                      NEW YORK                      NY   10034     A                                                                           FUEUU00000U0000000000003122070010PN196812272007021220070300000002850
0312   201008053827353 MENA-ROBIN                    SHIRLEY              95 06 41TH AVE APT 2A                                       FLUSHING                      NY   11373     A                                                                           FUEUU00000U0000000000003122070010PN        2009110520091220110302850
0312   201008053886040 RIDDELL                       DESMOND             V779 LOVINA AVE                                              BROOKLYN                      NY   11203     A                                                                           MUEUU00000U0000000000003121040010PN194402222000110320001200000002850
0312   201008053903759 LEWIS                         ARCHIBALD            107 COOPER ST                                               BROOKLYN                      NY   11207     A                                                                           MUEUU00000U0000000000003121510010PN193803012000052320000600000002800
0312   201008053940281 FERNANDEZ                     HUMBERTO             119 VERMILEYA ST APT 3E                                     NEW YORK                      NY   10040     A                                                                           MUEUU00000U0000000000003121110010PN194106132004060420040700000002700
0312   201008054026027 DELEON                        NATALIA              77 OWENS STREET                                             BRENTWOOD                     NY   11717     A                                                                           FUEUU00000U0000000000003122260010PN198010312010050920100620101203000
0312   201008054349884 WAITE                         JEANETTE            E1206A ROUND POND RD                                         RONKONKOMA                    NY   11779     A                                                                           FUEUU00000U0000000000003121820010PN194312042003080420030900000003200
0312   201008054367619 ULMER                         JOHN                R122 BURLINGTON AVE                                          DEER PARK                     NY   11729     A                                                                           MUEUU00000U0000000000003122150010PN194405082008010120080100000003050
0312   201008054480272 SEFCIK                        THERESA              42 SUNNY RIDGE COURT                                        KUTZTOWN                      PA   19530     A                                                                           FUEUU00000U0000000000003122280010PN195001231993031819930400000002650
0312   201008054563326 JAYA                          MARIA                727 ROCKLAND ST                                             WESTBURY                      NY   11590     A                                                                           FUEUU00000U0000000000003122100010PN198002052002092420021000000002850
0312   201008054566352 EASON                         KATHY               L1503  BARCLAY MANOR                                         NEWBURGH                      NY   12550     A                                                                           FUEUU00000U0000000000003121890010PN195806261994032119940400000002700
0312   201008054569006 WILLIE                        SCOTT                ?                                                           ?                             ??   00000     A                                                                           MUEUU00000U0000000000003121430010PN        2009042720090520101202850
0312   201008054604494 DIAZ                          PATRICK              74 LINCOLN RD                                               MEDFORD                       NY   11763     A                                                                           MUEUU00000U0000000000003122150010PN196401252006071020060800000003050
0312   201008054608860 RODRIGUEZ                     YRALDA               1416 27TH ST                                                NORTH BERGEN                  NJ   07047     A                                                                           FUEUU00000U0000000000003121450010PN196001191994110219941200000002400
0312   201008054629399 BAINS                         HANSIL               3331 105TH STREET APT 2                                     FLUSHING                      NY   11368     A                                                                           MUEUU00000U0000000000003121510010PN196405132009110120091200000002800
0312   201008054689128 STEWART                       IESHA                100-49 200 ST APT 2                                         QUEENS                        NY   11423     A                                                                           FUEUU00000U0000000000003121450061PN198305022010070120100720100802400
0312   201008054700896 GONZALEZ-DISLA                LUZ                  43 E 6TH ST                                                 HUNTINGTON STA                NY   11746     A                                                                           FUEUU00000U0000000000003122150010PN197301181998111619981200000003050
0312   201008054703963 PEREZ                         OSCAR                611 E 149TH ST APT 6G                                       BRONX                         NY   10455     A                                                                           MUEUU00000U0000000000003121500010PN195806092008010120080100000003050
0312   201008054777896 CANTOR                        OMAR                 353 WASHINGTON AVE                                          HEMPSTEAD                     NY   11551     A                                                                           MUEUU00000U0000000000003122230010PN197904192006062520060700000003000
0312   201008054783732 JIMENEZ                       EMITANIA             153 VERMILYEA AVE APT 2B                                    NEW YORK                      NY   10034     A2125671449                                                                 FUEUU00000U0000000000003122200010PN195710101991011419910200000003050
0312   201008054805003 DAPAAH                        TOMMY                223 SNYDER ST                                               ORANGE                        NJ   07050     A                                                                           MUEUU00000U0000000000003122190010PN196003162009041320090500000003050
0312   201008054884283 BALTAZAR                      MARY                I1016 WHEELER APT 1                                          BRONX                         NY   10472     A                                                                           FUEUU00000U0000000000003121450010PN198208282002070920020800000002400
0312   201008054901864 NAUL                          SABRINA              8716 WINCHESTER BLVD APT 4E                                 JAMAICA                       NY   11427     A7187760842                                                                 FUEUU00000U0000000000003122330010PN196912202002080620020900000002600
0312   201008054908957 KARGBO                        EDIATU               26 EBBITTS ST                                               STATEN ISLAND                 NY   10306     A                                                                           FUEUU00000U0000000000003121980010PN198909162010030120100320100902200
0312   201008054925164 ALLEN                         KOU                  231 STEUBEN ST APT 6B                                       STATEN ISLAND                 NY   10304     A                                                                           FUEUU00000U0000000000003121980010PN196507072006020720060320120102200
0312   201008054941317 JACQUES                       MARIE               C918 E 107TH ST                                              BROOKLYN                      NY   11236     A                                                                           FUEUU00000U0000000000003121980010PN198701262006090420061020101102200
0312   201008054944818 DE.LA.CRUZ                    ARGENTINA            845 COLUMBUS AVE APT 7B                                     NEW YORK                      NY   10022     A                                                                           FUEUU00000U0000000000003121450010PN194602162008072220080800000002400
0312   201008054945697 DELGADO                       LUZ                  9 MADISON APT 9F                                            PLAINFIELD                    NJ   07060     A                                                                           MUEUU00000U0000000000003121700010PN196501012010050120100520100902850
0312   201008054947113 PORTILLO                      MIRNA                34 PALM ROAD                                                ROCKY POINT                   NY   11778     A                                                                           FUEUU00000U0000000000003122250010PN198807242010060620100700000003000
0312   201008055025749 GONZALEZ                      MERCEDES             366 PALMETTO STREET APT 3A                                  BROOKLYN                      NY   11237     A                                                                           FUEUU00000U0000000000003122200061PN        2010060120100720100803050
0312   201008055161671 BARRECA                       MADELINE             16 ST. JOSEPH ST.                                           SCHENECTADY                   NY   12303     A                                                                           FUEUU00000U0000000000003121900010PN192010071967060119670700000001400
0312   201008055248626 MINOR                         RUTH                M44-07 4TH AVE #B2                                           BROOKLYN                      NY   11220     A                                                                           FUEUU00000U0000000000003121900010PN192103111960081219600900000001400
0312   201008055428882 COTTO                         HECTOR               439 17TH ST                                                 BROOKLYN                      NY   11215     A                                                                           MUEUU00000U0000000000003122000010PN194812271992010919920200000002800
0312   201008055444179 PINO                          GUSTAVO              1309 MANATUCK BLVD                                          BAY SHORE                     NY   11706     A                                                                           MUEUU00000U0000000000003122150010PN195111112001041120010500000003050
0312   201008055463870 MUZIO                         DEBRA               M428 RAMONA AVE                                              STATEN ISLAND                 NY   10312     A                                                                           FUEUU00000U0000000000003121980010PN195508092007031920070420120102200
0312   201008055487041 RAMOS                         ROBERTO              409 74TH ST APT 2                                           COLONIA                       NJ   07067     A                                                                           MUEUU00000U0000000000003121600010PN193803151993070519930820111102900
0312   201008055488910 RODRIGUEZ                     ROSMERY              12 WATERMILL WAY                                            RIDGE                         NY   11961     A                                                                           FUEUU00000U0000000000003121820010PN195202042002120220030100000003200
0312   201008055503579 WASHIRADUSIT                  SURASAK              221 PLUNKETT ST                                             BRENTWOOD                     NY   11717     A                                                                           MUEUU00000U0000000000003122150010PN195202081996010119960100000003050
0312   201008055508628 HECHAVARRIA                   MARGARET             189 CLARISSA DR                                             BAY SHORE                     NY   11706     A6314330360                                                                 FUEUU00000U0000000000003122150010PN196108192006032020060400000003050
0312   201008055600695 SIERRA -TORO                  ERIK                 000                                                         000                           ??   00000     A                                                                           MUEUU00000U0000000000003121830010PN        2010060720100700000002600
0312   201008055625217 SANTIAGO                      LUIS                 566 ESSEX STREET                                            BROOKLYN                      NY   11208     A                                                                           MUEUU00000U0000000000003122190010PN196411302009041320090520110103050
0312   201008055648329 FAILLACE                      ROSS                 6518 AVE T                                                  BROOKLYN                      NY   11234     A                                                                           MUEUU00000U0000000000003121460010PN196402212008050120080500000003000
0312   201008055664636 ZITO                          JOSEPH               1333 12TH ST                                                WEST BABILON                  NY   11704     A                                                                           MUEUU00000U0000000000003121870010PN197901052003010620030200000003100
0312   201008055666240 STAFFORD                      JAMES               R104 FORREST AVENUE                                          SHIRLEY                       NY   11967     A                                                                           MUEUU00000U0000000000003121820010PN198105302008072120080800000003200
0312   201008055685102 HOGAN                         FRANK                30 MAYFIELD DR                                              MASTIC BEACH                  NY   11951     A                                                                           MUEUU00000U0000000000003121820010PN196512082002040820020500000003200
0312   201008055721726 RAGHUNATH                     SAVITRIE             8816 80 ST                                                  JAMAICA                       NY   11421     A                                                                           FUEUU00000U0000000000003121770010PN195606261987041319870500000003150
0312   201008055765019 RIVERA                        MARIA-TERESA         102 CENTER ST 2ND FLOOR                                     NEWBURGH                      NY   12550     A                                                                           FUEUU00000U0000000000003121890010PN196412191989081419890920110502700
0312   201008055767682 PINALES                       ROLANDO              526 W 158ST APT 65                                          NEW YORK                      NY   10032     A                                                                           MUEUU00000U0000000000003121090010PN197108091989080919890900000002700
0312   201008055783438 ALBANESE                      SAMANTHA             26 AMAPOLA LANE                                             KINGS PARK                    NY   11754     A                                                                           FUEUU00000U0000000000003122250019PN199005152010081320100900000003000
0312   201008055784258 MARTINEZ                      JOSE                D31 3RD ST                                                   GARFIELD                      NJ   07026     A                                                                           MUEUU00000U0000000000003121780010PN198805182009091420091000000002400
0312   201008055785741 GUTIERRES                     LOURDES              14 E. ELM ST                                                CENTRAL ISLIP                 NY   11722     A6319383416                                                                 FUEUU00000U0000000000003122260061PN197507132010050820100620100803000
0312   201008055786388 O.CONNELL                     JONATHAN             0000                                                        000                           0    00000     A                                                                           MUEUU00000U0000000000003121820010PN199006012009080320090900000003200
0312   201008055803180 MELENDEZ                      CANDIDA              1165 EVERGREEN AVE APT-1D                                   BRONX                         NY   10472     A                                                                           FUEUU00000U0000000000003121450010PN195709201989073119890800000002400
0312   201008055804284 HERNANDEZ                     LEINY                1787 FIFTH AVENUE                                           BAYSHORE                      NY   11706     A                                                                           FUEUU00000U0000000000003122260010PN199112242010070520100820110803000
0312   201008055820103 TRAORE                        AMINATA              1014 HOE AVE APT 4B                                         BRONX                         NY   10459     A                                                                           FUEUU00000U0000000000003121980010PN197001112005122920060100000002200
0312   201008055826852 GANESH                        INDRANIE             16835 104TH AVE                                             JAMAICA                       NY   11433     A                                                                           FUEUU00000U0000000000003122330010PN196603262001092620011000000002600
0312   201008055867123 REYES-CASTILLO                NEILA               A50 E 191TH ST APT 5D                                        BRONX                         NY   10468     A9176228586                                                                 FUEUU00000U0000000000003121930010PN195801291997052719970600000002800
0312   201008055869105 RAMIREZ                       WENDY                534 W 147TH ST                                              NEW YORK                      NY   10031     A                                                                           FUEUU00000U0000000000003121110010PN197711191998080719980900000002700
0312   201008055877574 BONILLA                       MARIA               E87 JAMES ST                                                 ENGLEWOOD                     NJ   07631     A                                                                           FUEUU00000U0000000000003121340010PN195802242007090120071000000002700
0312   201008055923322 CHICAS-MARQUEZ                NOE                  669 NASSAU RD APT 16                                        HEMPSTEAD                     NY   11553     A                                                                           MUEUU00000U0000000000003121710010PN197708311999101819991100000003050
0312   201008055925418 BLACKETT                      JAMES                1154 PACIFIC STREET APT 2F                                  BROOKLYN                      NY   11216     A7183981686                                                                 MUEUU00000U0000000000003122160010PN196501022010060120100700000002300
0312   201008055947895 TAPIA                         MAURICIO             PRINCETON ARMS NORTH 1 APT 61                               CRANBURY                      NJ   08512     A                                                                           MUEUU00000U0000000000003122220010PN197907031999101819991100000003000
0312   201008055960887 RAMSUNDAR                     DILRANI              123 EUCLID AVE                                              BROOKLYN                      NY   11208     A3473031797                                                                 MUEUU00000U0000000000003122330010PN196701162009060120090700000002600
0312   201008055963624 BROOMFIELD                    GARY                 11307 FRANCIS LEWIS BLVD                                    JAMAICA                       NY   11429     A                                                                           MUEUU00000U0000000000003121510010PN196902022008030120080300000002800
0312   201008055981251 EBISIKE                       AMARACHI             271 BRUCKNER AVE APT 1A                                     STATEN  ISLAND                NY   10303     A                                                                           FUEUU00000U0000000000003121980010PN198104132007050720070620110302200
0312   201008056444616 HESLIN                        JOHN                W142 CAMBRIDGE DR                                            COPIAGUE                      NY   11726     A                                                                           MUEUU00000U0000000000003122150010PN195107282005080820050900000003050
0312   201008056469314 DAYTON                        SANDRA               24 GARDENIA DR                                              COMMACK                       NY   11725     A                                                                           FUEUU00000U0000000000003121870010PN195408302003012920030200000003100
0312   201008056508377 DE.JESUS                      DOMINGA              710 HOLLYBROOK LN                                           WHITING                       NJ   08759     A                                                                           FUEUU00000U0000000000003121080010PN194608042001102220011100000002500
0312   201008056567744 HARRINGTON                    JEFFREY              47 MC.KEGUER PL APT 2J                                      BROOKLYN                      NY   11225     A                                                                           MUEUU00000U0000000000003121830010PN196212192008042820080520110502600
0312   201008056588004 THOMPSON                      TRINA                1419 PINSON ST APT 2                                        FAR ROCKAWAY                  NY   11691     A                                                                           FUEUU00000U0000000000003121510010PN197111282007121620080120110102800
0312   201008056600287 ADAMS                         LORRAINE             240 PARKHILL AVE APT 6H                                     STATEN ISLAND                 NY   10304     A                                                                           FUEUU00000U0000000000003121980010PN197607152005090820051020120102200
0312   201008056609613 JESURUM                       ANTONIO              200 W 143RD ST APT 6J                                       NEW YORK                      NY   10030     A                                                                           MUEUU00000U0000000000005175400010PN197505052009042820090520110702800
0312   201008056661583 BUTLER                        DESHON               000                                                         000                           ??   00000     A                                                                           MUEUU00000U0000000000003122330010PN        2010071520100820110602600
0312   201008056665392 REYES                         EDGAR                91 BALDWIN ST APT 1                                         NEW BRUNSWICK                 NJ   08901     A                                                                           MUEUU00000U0000000000003122220010PN198109242010070120100720100903000
0312   201008056666141 UBALDO                        ALMER               B3720 81ST ST APT 4R                                         FLUSHING                      NY   11372     A                                                                           MUEUU00000U0000000000003121600010PN195609171984120119841200000002900
0312   201008056723903 SAUERWEIN                     JESSICA              555 MC CLEAN AVE APT 1D                                     STATEN ISLAND                 NY   10305     A                                                                           FUEUU00000U0000000000003121980010PN198611142008042120080520120102200
0312   201008056727010 SANCHEZ                       ANTONIO              9730 57TH AVE APT 12C                                       CORONA                        NY   11368     A                                                                           MUEUU00000U0000000000003121510010PN195305141987050119870500000002800
0312   201008056728085 SANTOS                        MARIA               A613 E 16TH ST APT 4A                                        BROOKLYN                      NY   11226     A                                                                           FUEUU00000U0000000000003121980010PN195101171990041019900500000002200
0312   201008056743987 CINIGLIO                      SCOTT                53 PINEDALE ST                                              FAEMINGVILE                   NY   11732     A                                                                           MUEUU00000U0000000000003122260010PN197807132010050120100520101203000
0312   201008056780908 ROJO                          MARISOL              566 LONG ISLAND AVE                                         MEDFORD                       NY   11763     A                                                                           FUEUU00000U0000000000003122250010PN199003102010080120100800000000000
0312   201008056780908 ROJO                          MARISOL              566 LONG ISLAND AVE                                         MEDFORD                       NY   11763     A                                                                           FUEUU00000U0000000000003122250010PN199003102010080120100800000003000
0312   201008056786851 RUIZ                          WESLEY               36 SANDIAL LN                                               BELLPORT                      NY   11713     A                                                                           MUEUU00000U0000000000003121820010PN199005032009081020090900000003200
0312   201008056800659 BAUER                         WAYNE                143 NORTH BLVD                                              SHIRLEY                       NY   11967     A                                                                           MUEUU00000U0000000000003121820010PN199107302010072620100800000003200
0312   201008056807244 MENDEZ                        MARILIN              192 SCHOLES ST                                              BROOKLYN                      NY   11206     A                                                                           FUEUU00000U0000000000003122070010PN197402192000022820000300000002850
0312   201008056825536 MARTINEZ                      ESTIR               H291 MARTENSE ST APT 4L                                      BROOKLYN                      NY   11226     A                                                                           MUEUU00000U0000000000003122070010PN197812202004020220040300000002850
0312   201008056826752 GARCIA                        NEUROLISA            511 W 167TH ST #2F                                          NEW YORK                      NY   10032     A                                                                           FUEUU00000U0000000000003121150010PN197210101998061419980700000002500
0312   201008056842135 GRULLON                       ELSA                M93 SCHOLE ST APT 4A                                         BROOKLYN                      NY   11206     A                                                                           FUEUU00000U0000000000003121880010PN196510092000020120000300000002850
0312   201008056845657 MALDONADO                     SATURNINA            921 LOWELL AVE                                              CENTRAL ISLIP                 NY   11722     A                                                                           FUEUU00000U0000000000003121180010PN196012021998041619980520111103150
0312   201008056865071 CABRERA                       CARLOS              N37 LUCILLE PL APT 11                                        PASSAIC                       NJ   07055     A                                                                           MUEUU00000U0000000000003121090010PN197809301997080519970900000002700
0312   201008056867561 SAKANDE                       MAIMOUNA             3410 KINGSBRIDGE AVE APT 3C                                 BRONX                         NY   10463     A                                                                           FUEUU00000U0000000000003121980010PN197105092003062820030700000002200
0312   201008056878394 RINGUIL                       MARIA                85 LINCOLN PL                                               IRVINGTON                     NJ   07111     A8622792892                                                                 FUEUU00000U0000000000003121260010PN197005202010022220100300000002700
0312   201008056880125 COURLEAUX                     PABLO                PO BOX 8610                                                 SADDLE BROOK                  NJ   07663     A                                                                           MUEUU00000U0000000000003121090010PN196512131998052719980600000002700
0312   201008056886868 VELASQUEZ                     MANUEL               PO BOX 2247                                                 BRENTWOOD                     NY   11717     A6314453132                                                                 MUEUU00000U0000000000003122250010PN197901082010060520100720110703000
0312   201008056905698 SMITH                         ARLENE               250 CLARKSON AVE APT 71                                     BROOKLYN                      NY   11226     A                                                                           FUEUU00000U0000000000003122330010PN196908302003061820030700000002600
0312   201008056963446 RODRIGUEZ-SALCEDO             ALMA                 181 VERMILIYEA ST APT 57                                    NEW YORK                      NY   10034     A                                                                           FUEUU00000U0000000000003122070010PN196005152009061020090700000002850
0312   201008056982205 VALDEZ                        JENNY                9429 78TH STREET                                            OZONE PARK                    NY   11416     A7186008270                                                                 FUEUU00000U0000000000003122160010PN197902162010033020100420100902300
0312   201008056985896 MORENO-MILLER                 BEATRIZ              620 W 42ND STREET APT 514F                                  NEW YORK                      NY   10036     A                                                                           FUEUU00000U0000000000003122160010PN198001232010070120100720110702500
0312   201008057153934 SANCHEZ                       GISELA              C424 19TH ST APT 7                                           UNION CITY                    NJ   07087     A                                                                           FUEUU00000U0000000000003121600010PN197511302006013020060300000002900
0312   201008057435634 CRUZ                          LEONEL               65 BUSHWICK AVE                                             CENTRAL ISLIP                 NY   11722     A                                                                           MUEUU00000U0000000000003122260010PN198509202006121020070120110603000
0312   201008057660552 GONZALEZ                      EUDOCIA              206 E 198TH ST APT 2B                                       BRONX                         NY   10458     A                                                                           FUEUU00000U0000000000003121980010PN195504151993050619930600000002200
0312   201008057682351 PEREZ                         HILDA               R380 S 4TH ST APT 19                                         BROOKLYN                      NY   11211     A                                                                           FUEUU00000U0000000000003122070010PN195509012003010320030200000002850
0312   201008057723561 ROGERS                        SHAUNNA              165 ST MARKS PL                                             STATEN ISLAND                 NY   10301     A                                                                           FUEUU00000U0000000000003121980010PN198612122010060820100700000002200
0312   201008057766134 BRUNNER                       ALBA                 43 SOUTH DR                                                 VALLEY STREAM                 NY   11581     A                                                                           FUEUU00000U0000000000003122230010PN196609152008040120080520101103000
0312   201008057802111 BERMAN                        VLADISLAV            8333 118TH ST APT 5E                                        JAMAICA                       NY   11415     A                                                                           MUEUU00000U0000000000003121510010PN195506181994072019940800000002800
0312   201008057808799 ORSI                          MICHEAL              0000                                                        000                           0    00000     A                                                                           MUEUU00000U0000000000003121820010PN199108202010012520100220101003200
0312   201008057842036 COLLADO-ESPINAL               ANGELITA            M776 EVERGREEN AVE                                           BROOKLYN                      NY   11207     A                                                                           FUEUU00000U0000000000003122070010PN195901272003050120030500000002850
0312   201008057861976 RAMESWAR                      DEOKIE               3294 FULTON ST                                              BROOKLYN                      NY   11208     A                                                                           FUEUU00000U0000000000003121510010PN196112062000070120000700000002800
